{
  "_format": "hh-sol-artifact-1",
  "contractName": "Election",
  "sourceName": "contracts/Election.sol",
  "abi": [
    {
      "inputs": [],
      "stateMutability": "nonpayable",
      "type": "constructor"
    },
    {
      "inputs": [],
      "name": "End",
      "outputs": [
        {
          "internalType": "bool",
          "name": "",
          "type": "bool"
        }
      ],
      "stateMutability": "view",
      "type": "function"
    },
    {
      "inputs": [],
      "name": "Start",
      "outputs": [
        {
          "internalType": "bool",
          "name": "",
          "type": "bool"
        }
      ],
      "stateMutability": "view",
      "type": "function"
    },
    {
      "inputs": [
        {
          "internalType": "uint256",
          "name": "",
          "type": "uint256"
        }
      ],
      "name": "Voters",
      "outputs": [
        {
          "internalType": "address",
          "name": "",
          "type": "address"
        }
      ],
      "stateMutability": "view",
      "type": "function"
    },
    {
      "inputs": [
        {
          "internalType": "string",
          "name": "_header",
          "type": "string"
        },
        {
          "internalType": "string",
          "name": "_slogan",
          "type": "string"
        }
      ],
      "name": "addCandidate",
      "outputs": [],
      "stateMutability": "nonpayable",
      "type": "function"
    },
    {
      "inputs": [],
      "name": "admin",
      "outputs": [
        {
          "internalType": "address",
          "name": "",
          "type": "address"
        }
      ],
      "stateMutability": "view",
      "type": "function"
    },
    {
      "inputs": [],
      "name": "endElection",
      "outputs": [],
      "stateMutability": "nonpayable",
      "type": "function"
    },
    {
      "inputs": [],
      "name": "getElectionDetails",
      "outputs": [
        {
          "internalType": "string",
          "name": "adminName",
          "type": "string"
        },
        {
          "internalType": "string",
          "name": "adminEmail",
          "type": "string"
        },
        {
          "internalType": "string",
          "name": "adminTitle",
          "type": "string"
        },
        {
          "internalType": "string",
          "name": "electionTitle",
          "type": "string"
        },
        {
          "internalType": "string",
          "name": "organizationTitle",
          "type": "string"
        }
      ],
      "stateMutability": "view",
      "type": "function"
    },
    {
      "inputs": [],
      "name": "getTotalCandidates",
      "outputs": [
        {
          "internalType": "uint256",
          "name": "",
          "type": "uint256"
        }
      ],
      "stateMutability": "view",
      "type": "function"
    },
    {
      "inputs": [],
      "name": "getTotalVoters",
      "outputs": [
        {
          "internalType": "uint256",
          "name": "",
          "type": "uint256"
        }
      ],
      "stateMutability": "view",
      "type": "function"
    },
    {
      "inputs": [
        {
          "internalType": "string",
          "name": "_name",
          "type": "string"
        },
        {
          "internalType": "string",
          "name": "_phoneNumber",
          "type": "string"
        }
      ],
      "name": "registerAsVoter",
      "outputs": [],
      "stateMutability": "nonpayable",
      "type": "function"
    },
    {
      "inputs": [
        {
          "internalType": "string",
          "name": "_adminName",
          "type": "string"
        },
        {
          "internalType": "string",
          "name": "_adminEmail",
          "type": "string"
        },
        {
          "internalType": "string",
          "name": "_adminTitle",
          "type": "string"
        },
        {
          "internalType": "string",
          "name": "_electionTitle",
          "type": "string"
        },
        {
          "internalType": "string",
          "name": "_organizationTitle",
          "type": "string"
        }
      ],
      "name": "setElectionDetails",
      "outputs": [],
      "stateMutability": "nonpayable",
      "type": "function"
    },
    {
      "inputs": [
        {
          "internalType": "bool",
          "name": "_verifiedStatus",
          "type": "bool"
        },
        {
          "internalType": "address",
          "name": "voterAddress",
          "type": "address"
        }
      ],
      "name": "verifyVoter",
      "outputs": [],
      "stateMutability": "nonpayable",
      "type": "function"
    },
    {
      "inputs": [
        {
          "internalType": "uint256",
          "name": "candidateId",
          "type": "uint256"
        }
      ],
      "name": "vote",
      "outputs": [],
      "stateMutability": "nonpayable",
      "type": "function"
    }
  ],
  "bytecode": "0x608060405234801561001057600080fd5b50336000806101000a81548173ffffffffffffffffffffffffffffffffffffffff021916908373ffffffffffffffffffffffffffffffffffffffff160217905550600060018190555060006002819055506000600360006101000a81548160ff0219169083151502179055506000600360016101000a81548160ff0219169083151502179055506116fd806100a66000396000f3fe608060405234801561001057600080fd5b50600436106100cf5760003560e01c8063506b8e0a1161008c5780639c35d98b116100665780639c35d98b146101c6578063ed836bc3146101f6578063f851a44014610218578063fee0d19a14610236576100cf565b8063506b8e0a1461018257806359f784681461019e578063793cf218146101a8576100cf565b80630121b93f146100d457806306e64907146100f05780630deb56ab1461010e5780631b55ba3a1461012c578063253e74e21461014a57806326541b5614610166575b600080fd5b6100ee60048036038101906100e99190610ddf565b610252565b005b6100f86103d6565b6040516101059190610e27565b60405180910390f35b6101166103ed565b6040516101239190610e51565b60405180910390f35b6101346103f7565b6040516101419190610e27565b60405180910390f35b610164600480360381019061015f9190610fb2565b61040e565b005b610180600480360381019061017b91906110b9565b610573565b005b61019c600480360381019061019791906111bb565b6106a1565b005b6101a661078d565b005b6101b0610853565b6040516101bd9190610e51565b60405180910390f35b6101e060048036038101906101db9190610ddf565b61085d565b6040516101ed919061120a565b60405180910390f35b6101fe61089c565b60405161020f9594939291906112a4565b60405180910390f35b610220610b8a565b60405161022d919061120a565b60405180910390f35b610250600480360381019061024b91906110b9565b610bae565b005b60011515600b60003373ffffffffffffffffffffffffffffffffffffffff1673ffffffffffffffffffffffffffffffffffffffff16815260200190815260200160002060030160009054906101000a900460ff161515146102b257600080fd5b60001515600b60003373ffffffffffffffffffffffffffffffffffffffff1673ffffffffffffffffffffffffffffffffffffffff16815260200190815260200160002060030160019054906101000a900460ff1615151461031257600080fd5b60011515600360009054906101000a900460ff1615151461033257600080fd5b60001515600360019054906101000a900460ff1615151461035257600080fd5b60016004600083815260200190815260200160002060020160008282546103799190611349565b9250508190555060011515600b60003373ffffffffffffffffffffffffffffffffffffffff1673ffffffffffffffffffffffffffffffffffffffff16815260200190815260200160002060030160019054906101000a9050505050565b6000600360019054906101000a900460ff16905090565b6000600254905090565b6000600360009054906101000a900460ff16905090565b60008054906101000a900473ffffffffffffffffffffffffffffffffffffffff1673ffffffffffffffffffffffffffffffffffffffff163373ffffffffffffffffffffffffffffffffffffffff161461049c576040517f08c379a0000000000000000000000000000000000000000000000000000000008152600401610493906113c9565b60405180910390fd5b6040518060a0016040528086815260200185815260200184815260200183815260200182815250600560008201518160000190816104da91906115f5565b5060208201518160010190816104f091906115f5565b50604082015181600201908161050691906115f5565b50606082015181600301908161051c91906115f5565b50608082015181600401908161053291906115f5565b509050506001600360006101000a81548160ff0219169083151502179055506000600360016101000a81548160ff0219169083151502179055505050505050565b60008054906101000a900473ffffffffffffffffffffffffffffffffffffffff1673ffffffffffffffffffffffffffffffffffffffff163373ffffffffffffffffffffffffffffffffffffffff1614610601576040517f08c379a00000000000000000000000000000000000000000000000000000000081526004016105f8906113c9565b60405180910390fd5b6000604051806080016040528084815260200183815260200160008152602001600254815250905080600460006002548152602001908152602001600020600082015181600001908161065491906115f5565b50602082015181600101908161066a91906115f5565b5060408201518160020155606082015181600301559050506001600260008282546106959190611349565b92505081905550505050565b60008054906101000a900473ffffffffffffffffffffffffffffffffffffffff1673ffffffffffffffffffffffffffffffffffffffff163373ffffffffffffffffffffffffffffffffffffffff161461072f576040517f08c379a0000000000000000000000000000000000000000000000000000000008152600401610726906113c9565b60405180910390fd5b81600b60008373ffffffffffffffffffffffffffffffffffffffff1673ffffffffffffffffffffffffffffffffffffffff16815260200190815260200160002060030160006101000a81548160ff0219169083151502179055505050565b60008054906101000a900473ffffffffffffffffffffffffffffffffffffffff1673ffffffffffffffffffffffffffffffffffffffff163373ffffffffffffffffffffffffffffffffffffffff161461081b576040517f08c379a0000000000000000000000000000000000000000000000000000000008152600401610812906113c9565b60405180910390fd5b6001600360016101000a81548160ff0219169083151502179055506000600360006101000a81548160ff021916908315150217905550565b6000600154905090565b600a818154811061086d57600080fd5b906000526020600020016000915054906101000a900473ffffffffffffffffffffffffffffffffffffffff1681565b6060806060806060600560000160056001016005600201600560030160056004018480546108c990611418565b80601f01602080910402602001604051908101604052809291908181526020018280546108f590611418565b80156109425780601f1061091757610100808354040283529160200191610942565b820191906000526020600020905b81548152906001019060200180831161092557829003601f168201915b5050505050945083805461095590611418565b80601f016020809104026020016040519081016040528092919081815260200182805461098190611418565b80156109ce5780601f106109a3576101008083540402835291602001916109ce565b820191906000526020600020905b8154815290600101906020018083116109b157829003601f168201915b505050505093508280546109e190611418565b80601f0160208091040260200160405190810160405280929190818152602001828054610a0d90611418565b8015610a5a5780601f10610a2f57610100808354040283529160200191610a5a565b820191906000526020600020905b815481529060010190602001808311610a3d57829003601f168201915b50505050509250818054610a6d90611418565b80601f0160208091040260200160405190810160405280929190818152602001828054610a9990611418565b8015610ae65780601f10610abb57610100808354040283529160200191610ae6565b820191906000526020600020905b815481529060010190602001808311610ac957829003601f168201915b50505050509150808054610af990611418565b80601f0160208091040260200160405190810160405280929190818152602001828054610b2590611418565b8015610b725780601f10610b4757610100808354040283529160200191610b72565b820191906000526020600020905b815481529060010190602001808311610b5557829003601f168201915b50505050509050945094509450945094509091929394565b60008054906101000a900473ffffffffffffffffffffffffffffffffffffffff1681565b60006040518060c001604052808481526020013373ffffffffffffffffffffffffffffffffffffffff16815260200183815260200160001515815260200160001515815260200160011515815250905080600b60003373ffffffffffffffffffffffffffffffffffffffff1673ffffffffffffffffffffffffffffffffffffffff1681526020019081526020016000206000820151816000019081610c5391906115f5565b5060208201518160010160006101000a81548173ffffffffffffffffffffffffffffffffffffffff021916908373ffffffffffffffffffffffffffffffffffffffff1602179055506040820151816002019081610cb091906115f5565b5060608201518160030160006101000a81548160ff02191690831515021790555060808201518160030160016101000a81548160ff02191690831515021790555060a08201518160030160026101000a81548160ff021916908315150217905550905050600a339080600181540180825580915050600190039060005260206000200160009091909190916101000a81548173ffffffffffffffffffffffffffffffffffffffff021916908373ffffffffffffffffffffffffffffffffffffffff1602179055506001806000828254610d899190611349565b92505081905550505050565b6000604051905090565b600080fd5b600080fd5b6000819050919050565b610dbc81610da9565b8114610dc757600080fd5b50565b600081359050610dd981610db3565b92915050565b600060208284031215610df557610df4610d9f565b5b6000610e0384828501610dca565b91505092915050565b60008115159050919050565b610e2181610e0c565b82525050565b6000602082019050610e3c6000830184610e18565b92915050565b610e4b81610da9565b82525050565b6000602082019050610e666000830184610e42565b92915050565b600080fd5b600080fd5b6000601f19601f8301169050919050565b7f4e487b7100000000000000000000000000000000000000000000000000000000600052604160045260246000fd5b610ebf82610e76565b810181811067ffffffffffffffff82111715610ede57610edd610e87565b5b80604052505050565b6000610ef1610d95565b9050610efd8282610eb6565b919050565b600067ffffffffffffffff821115610f1d57610f1c610e87565b5b610f2682610e76565b9050602081019050919050565b82818337600083830152505050565b6000610f55610f5084610f02565b610ee7565b905082815260208101848484011115610f7157610f70610e71565b5b610f7c848285610f33565b509392505050565b600082601f830112610f9957610f98610e6c565b5b8135610fa9848260208601610f42565b91505092915050565b600080600080600060a08688031215610fce57610fcd610d9f565b5b600086013567ffffffffffffffff811115610fec57610feb610da4565b5b610ff888828901610f84565b955050602086013567ffffffffffffffff81111561101957611018610da4565b5b61102588828901610f84565b945050604086013567ffffffffffffffff81111561104657611045610da4565b5b61105288828901610f84565b935050606086013567ffffffffffffffff81111561107357611072610da4565b5b61107f88828901610f84565b925050608086013567ffffffffffffffff8111156110a05761109f610da4565b5b6110ac88828901610f84565b9150509295509295909350565b600080604083850312156110d0576110cf610d9f565b5b600083013567ffffffffffffffff8111156110ee576110ed610da4565b5b6110fa85828601610f84565b925050602083013567ffffffffffffffff81111561111b5761111a610da4565b5b61112785828601610f84565b9150509250929050565b61113a81610e0c565b811461114557600080fd5b50565b60008135905061115781611131565b92915050565b600073ffffffffffffffffffffffffffffffffffffffff82169050919050565b60006111888261115d565b9050919050565b6111988161117d565b81146111a357600080fd5b50565b6000813590506111b58161118f565b92915050565b600080604083850312156111d2576111d1610d9f565b5b60006111e085828601611148565b92505060206111f1858286016111a6565b9150509250929050565b6112048161117d565b82525050565b600060208201905061121f60008301846111fb565b92915050565b600081519050919050565b600082825260208201905092915050565b60005b8381101561125f578082015181840152602081019050611244565b60008484015250505050565b600061127682611225565b6112808185611230565b9350611290818560208601611241565b61129981610e76565b840191505092915050565b600060a08201905081810360008301526112be818861126b565b905081810360208301526112d2818761126b565b905081810360408301526112e6818661126b565b905081810360608301526112fa818561126b565b9050818103608083015261130e818461126b565b90509695505050505050565b7f4e487b7100000000000000000000000000000000000000000000000000000000600052601160045260246000fd5b600061135482610da9565b915061135f83610da9565b92508282019050808211156113775761137661131a565b5b92915050565b7f4e6f742061646d696e0000000000000000000000000000000000000000000000600082015250565b60006113b3600983611230565b91506113be8261137d565b602082019050919050565b600060208201905081810360008301526113e2816113a6565b9050919050565b7f4e487b7100000000000000000000000000000000000000000000000000000000600052602260045260246000fd5b6000600282049050600182168061143057607f821691505b602082108103611443576114426113e9565b5b50919050565b60008190508160005260206000209050919050565b60006020601f8301049050919050565b600082821b905092915050565b6000600883026114ab7fffffffffffffffffffffffffffffffffffffffffffffffffffffffffffffffff8261146e565b6114b5868361146e565b95508019841693508086168417925050509392505050565b6000819050919050565b60006114f26114ed6114e884610da9565b6114cd565b610da9565b9050919050565b6000819050919050565b61150c836114d7565b611520611518826114f9565b84845461147b565b825550505050565b600090565b611535611528565b611540818484611503565b505050565b5b818110156115645761155960008261152d565b600181019050611546565b5050565b601f8211156115a95761157a81611449565b6115838461145e565b81016020851015611592578190505b6115a661159e8561145e565b830182611545565b50505b505050565b600082821c905092915050565b60006115cc600019846008026115ae565b1980831691505092915050565b60006115e583836115bb565b9150826002028217905092915050565b6115fe82611225565b67ffffffffffffffff81111561161757611616610e87565b5b6116218254611418565b61162c828285611568565b600060209050601f83116001811461165f576000841561164d578287015190505b61165785826115d9565b8655506116bf565b601f19841661166d86611449565b60005b8281101561169557848901518255600182019150602085019450602081019050611670565b868310156116b257848901516116ae601f8916826115bb565b8355505b6001600288020188555050505b50505050505056fea2646970667358221220e9dadd2349218f6dce53dbac44ed1512cc89024bcd12e3616183cb4a2b980d6664736f6c63430008120033",
  "linkReferences": {},
  "deployedLinkReferences": {}
}